{
  "contractName": "Voting",
  "abi": [
    {
      "anonymous": false,
      "inputs": [
        {
          "indexed": true,
          "internalType": "address",
          "name": "previousOwner",
          "type": "address"
        },
        {
          "indexed": true,
          "internalType": "address",
          "name": "newOwner",
          "type": "address"
        }
      ],
      "name": "OwnershipTransferred",
      "type": "event"
    },
    {
      "anonymous": false,
      "inputs": [
        {
          "indexed": false,
          "internalType": "uint256",
          "name": "proposalId",
          "type": "uint256"
        }
      ],
      "name": "ProposalRegistered",
      "type": "event"
    },
    {
      "anonymous": false,
      "inputs": [
        {
          "indexed": false,
          "internalType": "address",
          "name": "voter",
          "type": "address"
        },
        {
          "indexed": false,
          "internalType": "uint256",
          "name": "proposalId",
          "type": "uint256"
        }
      ],
      "name": "Voted",
      "type": "event"
    },
    {
      "anonymous": false,
      "inputs": [
        {
          "indexed": false,
          "internalType": "address",
          "name": "voterAddress",
          "type": "address"
        }
      ],
      "name": "VoterRegistered",
      "type": "event"
    },
    {
      "anonymous": false,
      "inputs": [
        {
          "indexed": false,
          "internalType": "enum Voting.WorkflowStatus",
          "name": "previousStatus",
          "type": "uint8"
        },
        {
          "indexed": false,
          "internalType": "enum Voting.WorkflowStatus",
          "name": "newStatus",
          "type": "uint8"
        }
      ],
      "name": "WorkflowStatusChange",
      "type": "event"
    },
    {
      "inputs": [],
      "name": "owner",
      "outputs": [
        {
          "internalType": "address",
          "name": "",
          "type": "address"
        }
      ],
      "stateMutability": "view",
      "type": "function",
      "constant": true
    },
    {
      "inputs": [],
      "name": "renounceOwnership",
      "outputs": [],
      "stateMutability": "nonpayable",
      "type": "function"
    },
    {
      "inputs": [
        {
          "internalType": "address",
          "name": "newOwner",
          "type": "address"
        }
      ],
      "name": "transferOwnership",
      "outputs": [],
      "stateMutability": "nonpayable",
      "type": "function"
    },
    {
      "inputs": [],
      "name": "getHighestVoteCount",
      "outputs": [
        {
          "internalType": "uint256",
          "name": "",
          "type": "uint256"
        }
      ],
      "stateMutability": "view",
      "type": "function",
      "constant": true
    },
    {
      "inputs": [],
      "name": "getWorkflowstatus",
      "outputs": [
        {
          "internalType": "enum Voting.WorkflowStatus",
          "name": "",
          "type": "uint8"
        }
      ],
      "stateMutability": "view",
      "type": "function",
      "constant": true
    },
    {
      "inputs": [
        {
          "internalType": "string",
          "name": "_description",
          "type": "string"
        }
      ],
      "name": "addProposal",
      "outputs": [],
      "stateMutability": "nonpayable",
      "type": "function"
    },
    {
      "inputs": [],
      "name": "getProposals",
      "outputs": [
        {
          "components": [
            {
              "internalType": "string",
              "name": "description",
              "type": "string"
            },
            {
              "internalType": "uint256",
              "name": "voteCount",
              "type": "uint256"
            }
          ],
          "internalType": "struct Voting.Proposal[]",
          "name": "",
          "type": "tuple[]"
        }
      ],
      "stateMutability": "view",
      "type": "function",
      "constant": true
    },
    {
      "inputs": [
        {
          "internalType": "uint256",
          "name": "_proposalId",
          "type": "uint256"
        }
      ],
      "name": "getProposal",
      "outputs": [
        {
          "components": [
            {
              "internalType": "string",
              "name": "description",
              "type": "string"
            },
            {
              "internalType": "uint256",
              "name": "voteCount",
              "type": "uint256"
            }
          ],
          "internalType": "struct Voting.Proposal",
          "name": "",
          "type": "tuple"
        }
      ],
      "stateMutability": "view",
      "type": "function",
      "constant": true
    },
    {
      "inputs": [
        {
          "internalType": "address",
          "name": "_voterAddress",
          "type": "address"
        }
      ],
      "name": "addVoter",
      "outputs": [],
      "stateMutability": "nonpayable",
      "type": "function"
    },
    {
      "inputs": [
        {
          "internalType": "address",
          "name": "_voterAddress",
          "type": "address"
        }
      ],
      "name": "removeVoter",
      "outputs": [],
      "stateMutability": "nonpayable",
      "type": "function"
    },
    {
      "inputs": [
        {
          "internalType": "address",
          "name": "_voterAddress",
          "type": "address"
        }
      ],
      "name": "getVoter",
      "outputs": [
        {
          "components": [
            {
              "internalType": "bool",
              "name": "isRegistered",
              "type": "bool"
            },
            {
              "internalType": "bool",
              "name": "hasVoted",
              "type": "bool"
            },
            {
              "internalType": "uint256",
              "name": "votedProposalId",
              "type": "uint256"
            }
          ],
          "internalType": "struct Voting.Voter",
          "name": "",
          "type": "tuple"
        }
      ],
      "stateMutability": "view",
      "type": "function",
      "constant": true
    },
    {
      "inputs": [],
      "name": "startRegisteringProposals",
      "outputs": [],
      "stateMutability": "nonpayable",
      "type": "function"
    },
    {
      "inputs": [],
      "name": "stopRegisteringProposals",
      "outputs": [],
      "stateMutability": "nonpayable",
      "type": "function"
    },
    {
      "inputs": [],
      "name": "startVotingSession",
      "outputs": [],
      "stateMutability": "nonpayable",
      "type": "function"
    },
    {
      "inputs": [
        {
          "internalType": "uint256",
          "name": "_proposalId",
          "type": "uint256"
        }
      ],
      "name": "vote",
      "outputs": [],
      "stateMutability": "nonpayable",
      "type": "function"
    },
    {
      "inputs": [],
      "name": "stopVotingSession",
      "outputs": [],
      "stateMutability": "nonpayable",
      "type": "function"
    },
    {
      "inputs": [],
      "name": "tallyVotes",
      "outputs": [],
      "stateMutability": "nonpayable",
      "type": "function"
    },
    {
      "inputs": [],
      "name": "getWinningProposalIds",
      "outputs": [
        {
          "internalType": "uint256[]",
          "name": "",
          "type": "uint256[]"
        }
      ],
      "stateMutability": "view",
      "type": "function",
      "constant": true
    },
    {
      "inputs": [],
      "name": "getWinners",
      "outputs": [
        {
          "components": [
            {
              "internalType": "string",
              "name": "description",
              "type": "string"
            },
            {
              "internalType": "uint256",
              "name": "voteCount",
              "type": "uint256"
            }
          ],
          "internalType": "struct Voting.Proposal[]",
          "name": "",
          "type": "tuple[]"
        }
      ],
      "stateMutability": "view",
      "type": "function",
      "constant": true
    }
  ],
  "bytecode": "0x60806040523480156200001157600080fd5b5062000032620000266200003860201b60201c565b6200004060201b60201c565b62000104565b600033905090565b60008060009054906101000a900473ffffffffffffffffffffffffffffffffffffffff169050816000806101000a81548173ffffffffffffffffffffffffffffffffffffffff021916908373ffffffffffffffffffffffffffffffffffffffff1602179055508173ffffffffffffffffffffffffffffffffffffffff168173ffffffffffffffffffffffffffffffffffffffff167f8be0079c531659141344cd1fd0a4f28419497f9722a3daafe3b4186f6b6457e060405160405180910390a35050565b61343e80620001146000396000f3fe608060405234801561001057600080fd5b50600436106101205760003560e01c806386c1ff68116100ad578063d4f50f9811610071578063d4f50f9814610271578063df15c37e146102a1578063ee74c678146102bf578063f2fde38b146102c9578063f4ab9adf146102e557610120565b806386c1ff68146101cb5780638da5cb5b146101e7578063b5d2b50314610205578063ba81d9fd14610223578063c7f758a81461024157610120565b80632fdae3c5116100f45780632fdae3c514610173578063378a21781461018f57806362564c4814610199578063715018a6146101b757806385d91578146101c157610120565b8062af7ead146101255780630121b93f14610143578063017f25811461015f57806317a0ad8e14610169575b600080fd5b61012d610301565b60405161013a9190611fca565b60405180910390f35b61015d60048036038101906101589190612025565b610380565b005b610167610675565b005b6101716107ce565b005b61018d60048036038101906101889190612198565b610928565b005b610197610b38565b005b6101a1610e46565b6040516101ae9190612377565b60405180910390f35b6101bf610fd0565b005b6101c9611058565b005b6101e560048036038101906101e091906123f7565b6111b2565b005b6101ef6113c8565b6040516101fc9190612433565b60405180910390f35b61020d6113f1565b60405161021a91906124fd565b60405180910390f35b61022b6114d1565b6040516102389190612596565b60405180910390f35b61025b60048036038101906102569190612025565b6114e8565b60405161026891906125ee565b60405180910390f35b61028b600480360381019061028691906123f7565b611696565b604051610298919061266d565b60405180910390f35b6102a96117be565b6040516102b69190612377565b60405180910390f35b6102c7611941565b005b6102e360048036038101906102de91906123f7565b611a9b565b005b6102ff60048036038101906102fa91906123f7565b611b93565b005b60006005808111156103165761031561251f565b5b600260009054906101000a900460ff1660058111156103385761033761251f565b5b14610378576040517f08c379a000000000000000000000000000000000000000000000000000000000815260040161036f90612731565b60405180910390fd5b600154905090565b600460003373ffffffffffffffffffffffffffffffffffffffff1673ffffffffffffffffffffffffffffffffffffffff16815260200190815260200160002060000160009054906101000a900460ff1661040f576040517f08c379a00000000000000000000000000000000000000000000000000000000081526004016104069061279d565b60405180910390fd5b600360058111156104235761042261251f565b5b600260009054906101000a900460ff1660058111156104455761044461251f565b5b14610485576040517f08c379a000000000000000000000000000000000000000000000000000000000815260040161047c9061282f565b60405180910390fd5b60038054905081106104cc576040517f08c379a00000000000000000000000000000000000000000000000000000000081526004016104c3906128c1565b60405180910390fd5b600460003373ffffffffffffffffffffffffffffffffffffffff1673ffffffffffffffffffffffffffffffffffffffff16815260200190815260200160002060000160019054906101000a900460ff161561055c576040517f08c379a00000000000000000000000000000000000000000000000000000000081526004016105539061292d565b60405180910390fd5b80600460003373ffffffffffffffffffffffffffffffffffffffff1673ffffffffffffffffffffffffffffffffffffffff168152602001908152602001600020600101819055506001600460003373ffffffffffffffffffffffffffffffffffffffff1673ffffffffffffffffffffffffffffffffffffffff16815260200190815260200160002060000160016101000a81548160ff021916908315150217905550600381815481106106125761061161294d565b5b90600052602060002090600202016001016000815480929190610634906129ab565b91905055507f4d99b957a2bc29a30ebd96a7be8e68fe50a3c701db28a91436490b7d53870ca4338260405161066a9291906129f4565b60405180910390a150565b61067d611daa565b73ffffffffffffffffffffffffffffffffffffffff1661069b6113c8565b73ffffffffffffffffffffffffffffffffffffffff16146106f1576040517f08c379a00000000000000000000000000000000000000000000000000000000081526004016106e890612a69565b60405180910390fd5b600160058111156107055761070461251f565b5b600260009054906101000a900460ff1660058111156107275761072661251f565b5b14610767576040517f08c379a000000000000000000000000000000000000000000000000000000000815260040161075e90612b21565b60405180910390fd5b60028060006101000a81548160ff0219169083600581111561078c5761078b61251f565b5b02179055507f0a97a4ee45751e2abf3e4fc8946939630b11b371ea8ae39ccdc3056e98f5cc3f600160026040516107c4929190612b41565b60405180910390a1565b6107d6611daa565b73ffffffffffffffffffffffffffffffffffffffff166107f46113c8565b73ffffffffffffffffffffffffffffffffffffffff161461084a576040517f08c379a000000000000000000000000000000000000000000000000000000000815260040161084190612a69565b60405180910390fd5b6003600581111561085e5761085d61251f565b5b600260009054906101000a900460ff1660058111156108805761087f61251f565b5b146108c0576040517f08c379a00000000000000000000000000000000000000000000000000000000081526004016108b790612bdc565b60405180910390fd5b6004600260006101000a81548160ff021916908360058111156108e6576108e561251f565b5b02179055507f0a97a4ee45751e2abf3e4fc8946939630b11b371ea8ae39ccdc3056e98f5cc3f6003600460405161091e929190612b41565b60405180910390a1565b600460003373ffffffffffffffffffffffffffffffffffffffff1673ffffffffffffffffffffffffffffffffffffffff16815260200190815260200160002060000160009054906101000a900460ff166109b7576040517f08c379a00000000000000000000000000000000000000000000000000000000081526004016109ae9061279d565b60405180910390fd5b600160058111156109cb576109ca61251f565b5b600260009054906101000a900460ff1660058111156109ed576109ec61251f565b5b14610a2d576040517f08c379a0000000000000000000000000000000000000000000000000000000008152600401610a2490612c6e565b60405180910390fd5b610a468160405180602001604052806000815250611db2565b15610a86576040517f08c379a0000000000000000000000000000000000000000000000000000000008152600401610a7d90612d00565b60405180910390fd5b610a8e611ecf565b81816000018190525060038190806001815401808255809150506001900390600052602060002090600202016000909190919091506000820151816000019080519060200190610adf929190611ee9565b506020820151816001015550507f92e393e9b54e2f801d3ea4beb0c5e71a21cc34a5d34b77d0fb8a3aa1650dc18f6001600380549050610b1f9190612d20565b604051610b2c9190611fca565b60405180910390a15050565b610b40611daa565b73ffffffffffffffffffffffffffffffffffffffff16610b5e6113c8565b73ffffffffffffffffffffffffffffffffffffffff1614610bb4576040517f08c379a0000000000000000000000000000000000000000000000000000000008152600401610bab90612a69565b60405180910390fd5b60046005811115610bc857610bc761251f565b5b600260009054906101000a900460ff166005811115610bea57610be961251f565b5b14610c2a576040517f08c379a0000000000000000000000000000000000000000000000000000000008152600401610c2190612dc6565b60405180910390fd5b60005b600380549050811015610ddd57600060038281548110610c5057610c4f61294d565b5b9060005260206000209060020201604051806040016040529081600082018054610c7990612e15565b80601f0160208091040260200160405190810160405280929190818152602001828054610ca590612e15565b8015610cf25780601f10610cc757610100808354040283529160200191610cf2565b820191906000526020600020905b815481529060010190602001808311610cd557829003601f168201915b505050505081526020016001820154815250509050600560008260200151815260200190815260200160002082908060018154018082558091505060019003906000526020600020016000909190919091505560066000826020015181526020019081526020016000208190806001815401808255809150506001900390600052602060002090600202016000909190919091506000820151816000019080519060200190610da2929190611ee9565b5060208201518160010155505080602001516001541015610dc95780602001516001819055505b508080610dd5906129ab565b915050610c2d565b506005600260006101000a81548160ff02191690836005811115610e0457610e0361251f565b5b02179055507f0a97a4ee45751e2abf3e4fc8946939630b11b371ea8ae39ccdc3056e98f5cc3f60046005604051610e3c929190612b41565b60405180910390a1565b6060600460003373ffffffffffffffffffffffffffffffffffffffff1673ffffffffffffffffffffffffffffffffffffffff16815260200190815260200160002060000160009054906101000a900460ff16610ed7576040517f08c379a0000000000000000000000000000000000000000000000000000000008152600401610ece9061279d565b60405180910390fd5b6003805480602002602001604051908101604052809291908181526020016000905b82821015610fc75783829060005260206000209060020201604051806040016040529081600082018054610f2c90612e15565b80601f0160208091040260200160405190810160405280929190818152602001828054610f5890612e15565b8015610fa55780601f10610f7a57610100808354040283529160200191610fa5565b820191906000526020600020905b815481529060010190602001808311610f8857829003601f168201915b5050505050815260200160018201548152505081526020019060010190610ef9565b50505050905090565b610fd8611daa565b73ffffffffffffffffffffffffffffffffffffffff16610ff66113c8565b73ffffffffffffffffffffffffffffffffffffffff161461104c576040517f08c379a000000000000000000000000000000000000000000000000000000000815260040161104390612a69565b60405180910390fd5b6110566000611e0b565b565b611060611daa565b73ffffffffffffffffffffffffffffffffffffffff1661107e6113c8565b73ffffffffffffffffffffffffffffffffffffffff16146110d4576040517f08c379a00000000000000000000000000000000000000000000000000000000081526004016110cb90612a69565b60405180910390fd5b600060058111156110e8576110e761251f565b5b600260009054906101000a900460ff16600581111561110a5761110961251f565b5b1461114a576040517f08c379a000000000000000000000000000000000000000000000000000000000815260040161114190612edf565b60405180910390fd5b6001600260006101000a81548160ff021916908360058111156111705761116f61251f565b5b02179055507f0a97a4ee45751e2abf3e4fc8946939630b11b371ea8ae39ccdc3056e98f5cc3f600060016040516111a8929190612b41565b60405180910390a1565b6111ba611daa565b73ffffffffffffffffffffffffffffffffffffffff166111d86113c8565b73ffffffffffffffffffffffffffffffffffffffff161461122e576040517f08c379a000000000000000000000000000000000000000000000000000000000815260040161122590612a69565b60405180910390fd5b600060058111156112425761124161251f565b5b600260009054906101000a900460ff1660058111156112645761126361251f565b5b146112a4576040517f08c379a000000000000000000000000000000000000000000000000000000000815260040161129b90612f71565b60405180910390fd5b600460008273ffffffffffffffffffffffffffffffffffffffff1673ffffffffffffffffffffffffffffffffffffffff16815260200190815260200160002060000160009054906101000a900460ff16611333576040517f08c379a000000000000000000000000000000000000000000000000000000000815260040161132a90613003565b60405180910390fd5b6000600460008373ffffffffffffffffffffffffffffffffffffffff1673ffffffffffffffffffffffffffffffffffffffff16815260200190815260200160002060000160006101000a81548160ff0219169083151502179055507fb6be2187d059cc2a55fe29e0e503b566e1e0f8c8780096e185429350acffd3dd816040516113bd9190612433565b60405180910390a150565b60008060009054906101000a900473ffffffffffffffffffffffffffffffffffffffff16905090565b60606005808111156114065761140561251f565b5b600260009054906101000a900460ff1660058111156114285761142761251f565b5b14611468576040517f08c379a000000000000000000000000000000000000000000000000000000000815260040161145f906130bb565b60405180910390fd5b6005600060015481526020019081526020016000208054806020026020016040519081016040528092919081815260200182805480156114c757602002820191906000526020600020905b8154815260200190600101908083116114b3575b5050505050905090565b6000600260009054906101000a900460ff16905090565b6114f0611ecf565b600460003373ffffffffffffffffffffffffffffffffffffffff1673ffffffffffffffffffffffffffffffffffffffff16815260200190815260200160002060000160009054906101000a900460ff1661157f576040517f08c379a00000000000000000000000000000000000000000000000000000000081526004016115769061279d565b60405180910390fd5b60038054905082106115c6576040517f08c379a00000000000000000000000000000000000000000000000000000000081526004016115bd906128c1565b60405180910390fd5b600382815481106115da576115d961294d565b5b906000526020600020906002020160405180604001604052908160008201805461160390612e15565b80601f016020809104026020016040519081016040528092919081815260200182805461162f90612e15565b801561167c5780601f106116515761010080835404028352916020019161167c565b820191906000526020600020905b81548152906001019060200180831161165f57829003601f168201915b505050505081526020016001820154815250509050919050565b61169e611f6f565b600460003373ffffffffffffffffffffffffffffffffffffffff1673ffffffffffffffffffffffffffffffffffffffff16815260200190815260200160002060000160009054906101000a900460ff1661172d576040517f08c379a00000000000000000000000000000000000000000000000000000000081526004016117249061279d565b60405180910390fd5b600460008373ffffffffffffffffffffffffffffffffffffffff1673ffffffffffffffffffffffffffffffffffffffff1681526020019081526020016000206040518060600160405290816000820160009054906101000a900460ff161515151581526020016000820160019054906101000a900460ff161515151581526020016001820154815250509050919050565b60606005808111156117d3576117d261251f565b5b600260009054906101000a900460ff1660058111156117f5576117f461251f565b5b14611835576040517f08c379a000000000000000000000000000000000000000000000000000000000815260040161182c90613173565b60405180910390fd5b600660006001548152602001908152602001600020805480602002602001604051908101604052809291908181526020016000905b82821015611938578382906000526020600020906002020160405180604001604052908160008201805461189d90612e15565b80601f01602080910402602001604051908101604052809291908181526020018280546118c990612e15565b80156119165780601f106118eb57610100808354040283529160200191611916565b820191906000526020600020905b8154815290600101906020018083116118f957829003601f168201915b505050505081526020016001820154815250508152602001906001019061186a565b50505050905090565b611949611daa565b73ffffffffffffffffffffffffffffffffffffffff166119676113c8565b73ffffffffffffffffffffffffffffffffffffffff16146119bd576040517f08c379a00000000000000000000000000000000000000000000000000000000081526004016119b490612a69565b60405180910390fd5b600260058111156119d1576119d061251f565b5b600260009054906101000a900460ff1660058111156119f3576119f261251f565b5b14611a33576040517f08c379a0000000000000000000000000000000000000000000000000000000008152600401611a2a90613205565b60405180910390fd5b6003600260006101000a81548160ff02191690836005811115611a5957611a5861251f565b5b02179055507f0a97a4ee45751e2abf3e4fc8946939630b11b371ea8ae39ccdc3056e98f5cc3f60026003604051611a91929190612b41565b60405180910390a1565b611aa3611daa565b73ffffffffffffffffffffffffffffffffffffffff16611ac16113c8565b73ffffffffffffffffffffffffffffffffffffffff1614611b17576040517f08c379a0000000000000000000000000000000000000000000000000000000008152600401611b0e90612a69565b60405180910390fd5b600073ffffffffffffffffffffffffffffffffffffffff168173ffffffffffffffffffffffffffffffffffffffff161415611b87576040517f08c379a0000000000000000000000000000000000000000000000000000000008152600401611b7e90613297565b60405180910390fd5b611b9081611e0b565b50565b611b9b611daa565b73ffffffffffffffffffffffffffffffffffffffff16611bb96113c8565b73ffffffffffffffffffffffffffffffffffffffff1614611c0f576040517f08c379a0000000000000000000000000000000000000000000000000000000008152600401611c0690612a69565b60405180910390fd5b60006005811115611c2357611c2261251f565b5b600260009054906101000a900460ff166005811115611c4557611c4461251f565b5b14611c85576040517f08c379a0000000000000000000000000000000000000000000000000000000008152600401611c7c90613329565b60405180910390fd5b600460008273ffffffffffffffffffffffffffffffffffffffff1673ffffffffffffffffffffffffffffffffffffffff16815260200190815260200160002060000160009054906101000a900460ff1615611d15576040517f08c379a0000000000000000000000000000000000000000000000000000000008152600401611d0c90613395565b60405180910390fd5b6001600460008373ffffffffffffffffffffffffffffffffffffffff1673ffffffffffffffffffffffffffffffffffffffff16815260200190815260200160002060000160006101000a81548160ff0219169083151502179055507fb6be2187d059cc2a55fe29e0e503b566e1e0f8c8780096e185429350acffd3dd81604051611d9f9190612433565b60405180910390a150565b600033905090565b600081604051602001611dc591906133f1565b6040516020818303038152906040528051906020012083604051602001611dec91906133f1565b6040516020818303038152906040528051906020012014905092915050565b60008060009054906101000a900473ffffffffffffffffffffffffffffffffffffffff169050816000806101000a81548173ffffffffffffffffffffffffffffffffffffffff021916908373ffffffffffffffffffffffffffffffffffffffff1602179055508173ffffffffffffffffffffffffffffffffffffffff168173ffffffffffffffffffffffffffffffffffffffff167f8be0079c531659141344cd1fd0a4f28419497f9722a3daafe3b4186f6b6457e060405160405180910390a35050565b604051806040016040528060608152602001600081525090565b828054611ef590612e15565b90600052602060002090601f016020900481019282611f175760008555611f5e565b82601f10611f3057805160ff1916838001178555611f5e565b82800160010185558215611f5e579182015b82811115611f5d578251825591602001919060010190611f42565b5b509050611f6b9190611f94565b5090565b6040518060600160405280600015158152602001600015158152602001600081525090565b5b80821115611fad576000816000905550600101611f95565b5090565b6000819050919050565b611fc481611fb1565b82525050565b6000602082019050611fdf6000830184611fbb565b92915050565b6000604051905090565b600080fd5b600080fd5b61200281611fb1565b811461200d57600080fd5b50565b60008135905061201f81611ff9565b92915050565b60006020828403121561203b5761203a611fef565b5b600061204984828501612010565b91505092915050565b600080fd5b600080fd5b6000601f19601f8301169050919050565b7f4e487b7100000000000000000000000000000000000000000000000000000000600052604160045260246000fd5b6120a58261205c565b810181811067ffffffffffffffff821117156120c4576120c361206d565b5b80604052505050565b60006120d7611fe5565b90506120e3828261209c565b919050565b600067ffffffffffffffff8211156121035761210261206d565b5b61210c8261205c565b9050602081019050919050565b82818337600083830152505050565b600061213b612136846120e8565b6120cd565b90508281526020810184848401111561215757612156612057565b5b612162848285612119565b509392505050565b600082601f83011261217f5761217e612052565b5b813561218f848260208601612128565b91505092915050565b6000602082840312156121ae576121ad611fef565b5b600082013567ffffffffffffffff8111156121cc576121cb611ff4565b5b6121d88482850161216a565b91505092915050565b600081519050919050565b600082825260208201905092915050565b6000819050602082019050919050565b600081519050919050565b600082825260208201905092915050565b60005b8381101561224757808201518184015260208101905061222c565b83811115612256576000848401525b50505050565b60006122678261220d565b6122718185612218565b9350612281818560208601612229565b61228a8161205c565b840191505092915050565b61229e81611fb1565b82525050565b600060408301600083015184820360008601526122c1828261225c565b91505060208301516122d66020860182612295565b508091505092915050565b60006122ed83836122a4565b905092915050565b6000602082019050919050565b600061230d826121e1565b61231781856121ec565b935083602082028501612329856121fd565b8060005b85811015612365578484038952815161234685826122e1565b9450612351836122f5565b925060208a0199505060018101905061232d565b50829750879550505050505092915050565b600060208201905081810360008301526123918184612302565b905092915050565b600073ffffffffffffffffffffffffffffffffffffffff82169050919050565b60006123c482612399565b9050919050565b6123d4816123b9565b81146123df57600080fd5b50565b6000813590506123f1816123cb565b92915050565b60006020828403121561240d5761240c611fef565b5b600061241b848285016123e2565b91505092915050565b61242d816123b9565b82525050565b60006020820190506124486000830184612424565b92915050565b600081519050919050565b600082825260208201905092915050565b6000819050602082019050919050565b60006124868383612295565b60208301905092915050565b6000602082019050919050565b60006124aa8261244e565b6124b48185612459565b93506124bf8361246a565b8060005b838110156124f05781516124d7888261247a565b97506124e283612492565b9250506001810190506124c3565b5085935050505092915050565b60006020820190508181036000830152612517818461249f565b905092915050565b7f4e487b7100000000000000000000000000000000000000000000000000000000600052602160045260246000fd5b6006811061255f5761255e61251f565b5b50565b60008190506125708261254e565b919050565b600061258082612562565b9050919050565b61259081612575565b82525050565b60006020820190506125ab6000830184612587565b92915050565b600060408301600083015184820360008601526125ce828261225c565b91505060208301516125e36020860182612295565b508091505092915050565b6000602082019050818103600083015261260881846125b1565b905092915050565b60008115159050919050565b61262581612610565b82525050565b606082016000820151612641600085018261261c565b506020820151612654602085018261261c565b5060408201516126676040850182612295565b50505050565b6000606082019050612682600083018461262b565b92915050565b600082825260208201905092915050565b7f54686520776f726b666c6f77207374617475732063616e6e6f7420616c6c6f7760008201527f656420796f7520746f2073656520746865206869676865737420766f7465206360208201527f6f756e742e000000000000000000000000000000000000000000000000000000604082015250565b600061271b604583612688565b915061272682612699565b606082019050919050565b6000602082019050818103600083015261274a8161270e565b9050919050565b7f596f7520617265206e6f74207265676973746572656420617320766f7465722e600082015250565b6000612787602083612688565b915061279282612751565b602082019050919050565b600060208201905081810360008301526127b68161277a565b9050919050565b7f54686520776f726b666c6f7720737461747573206e6f7420616c6c6f7765642060008201527f796f7520746f20766f74652e0000000000000000000000000000000000000000602082015250565b6000612819602c83612688565b9150612824826127bd565b604082019050919050565b600060208201905081810360008301526128488161280c565b9050919050565b7f50726f706f73616c206e6f7420666f756e642e20506c6561736520656e74657260008201527f20612076616c69642069642e0000000000000000000000000000000000000000602082015250565b60006128ab602c83612688565b91506128b68261284f565b604082019050919050565b600060208201905081810360008301526128da8161289e565b9050919050565b7f596f75206861766520616c726561647920766f7465642e000000000000000000600082015250565b6000612917601783612688565b9150612922826128e1565b602082019050919050565b600060208201905081810360008301526129468161290a565b9050919050565b7f4e487b7100000000000000000000000000000000000000000000000000000000600052603260045260246000fd5b7f4e487b7100000000000000000000000000000000000000000000000000000000600052601160045260246000fd5b60006129b682611fb1565b91507fffffffffffffffffffffffffffffffffffffffffffffffffffffffffffffffff8214156129e9576129e861297c565b5b600182019050919050565b6000604082019050612a096000830185612424565b612a166020830184611fbb565b9392505050565b7f4f776e61626c653a2063616c6c6572206973206e6f7420746865206f776e6572600082015250565b6000612a53602083612688565b9150612a5e82612a1d565b602082019050919050565b60006020820190508181036000830152612a8281612a46565b9050919050565b7f54686520776f726b666c6f7720737461747573206e6f7420616c6c6f7765642060008201527f796f7520746f2073746f70207265676973746572696e672070726f706f73616c60208201527f732e000000000000000000000000000000000000000000000000000000000000604082015250565b6000612b0b604283612688565b9150612b1682612a89565b606082019050919050565b60006020820190508181036000830152612b3a81612afe565b9050919050565b6000604082019050612b566000830185612587565b612b636020830184612587565b9392505050565b7f54686520776f726b666c6f7720737461747573206e6f7420616c6c6f7765642060008201527f796f7520746f2073746f702074686520766f74696e672073657373696f6e2e00602082015250565b6000612bc6603f83612688565b9150612bd182612b6a565b604082019050919050565b60006020820190508181036000830152612bf581612bb9565b9050919050565b7f54686520776f726b666c6f77207374617475732063616e6e6f7420616c6c6f7760008201527f656420796f7520746f20726571756573742070726f706f73616c732e00000000602082015250565b6000612c58603c83612688565b9150612c6382612bfc565b604082019050919050565b60006020820190508181036000830152612c8781612c4b565b9050919050565b7f506c6561736520656e74657220612076616c6964206465736372697074696f6e60008201527f2e00000000000000000000000000000000000000000000000000000000000000602082015250565b6000612cea602183612688565b9150612cf582612c8e565b604082019050919050565b60006020820190508181036000830152612d1981612cdd565b9050919050565b6000612d2b82611fb1565b9150612d3683611fb1565b925082821015612d4957612d4861297c565b5b828203905092915050565b7f54686520776f726b666c6f7720737461747573206e6f7420616c6c6f7765642060008201527f796f7520746f2074616c6c7920766f7465732e00000000000000000000000000602082015250565b6000612db0603383612688565b9150612dbb82612d54565b604082019050919050565b60006020820190508181036000830152612ddf81612da3565b9050919050565b7f4e487b7100000000000000000000000000000000000000000000000000000000600052602260045260246000fd5b60006002820490506001821680612e2d57607f821691505b60208210811415612e4157612e40612de6565b5b50919050565b7f54686520776f726b666c6f7720737461747573206e6f7420616c6c6f7765642060008201527f796f7520746f207374617274207265676973746572696e672070726f706f736160208201527f6c732e0000000000000000000000000000000000000000000000000000000000604082015250565b6000612ec9604383612688565b9150612ed482612e47565b606082019050919050565b60006020820190508181036000830152612ef881612ebc565b9050919050565b7f54686520776f726b666c6f77207374617475732063616e6e6f7420616c6c6f7760008201527f656420796f7520746f2072656d6f766520766f746572732e0000000000000000602082015250565b6000612f5b603883612688565b9150612f6682612eff565b604082019050919050565b60006020820190508181036000830152612f8a81612f4e565b9050919050565b7f54686520766f74657220697320616c7265616479206e6f74207265676973746560008201527f7265642e00000000000000000000000000000000000000000000000000000000602082015250565b6000612fed602483612688565b9150612ff882612f91565b604082019050919050565b6000602082019050818103600083015261301c81612fe0565b9050919050565b7f54686520776f726b666c6f77207374617475732063616e6e6f7420616c6c6f7760008201527f656420796f7520746f20736565207468652077696e6e6572732070726f706f7360208201527f616c206964732e00000000000000000000000000000000000000000000000000604082015250565b60006130a5604783612688565b91506130b082613023565b606082019050919050565b600060208201905081810360008301526130d481613098565b9050919050565b7f54686520776f726b666c6f77207374617475732063616e6e6f7420616c6c6f7760008201527f656420796f7520746f20736565207468652077696e6e6572732070726f706f7360208201527f616c732e00000000000000000000000000000000000000000000000000000000604082015250565b600061315d604483612688565b9150613168826130db565b606082019050919050565b6000602082019050818103600083015261318c81613150565b9050919050565b7f54686520776f726b666c6f7720737461747573206e6f7420616c6c6f7765642060008201527f796f7520746f2073746172742074686520766f74696e672073657373696f6e2e602082015250565b60006131ef604083612688565b91506131fa82613193565b604082019050919050565b6000602082019050818103600083015261321e816131e2565b9050919050565b7f4f776e61626c653a206e6577206f776e657220697320746865207a65726f206160008201527f6464726573730000000000000000000000000000000000000000000000000000602082015250565b6000613281602683612688565b915061328c82613225565b604082019050919050565b600060208201905081810360008301526132b081613274565b9050919050565b7f54686520776f726b666c6f77207374617475732063616e6e6f7420616c6c6f7760008201527f656420796f7520746f2061646420766f746572732e0000000000000000000000602082015250565b6000613313603583612688565b915061331e826132b7565b604082019050919050565b6000602082019050818103600083015261334281613306565b9050919050565b7f54686520766f74657220697320616c726561647920726567697374657265642e600082015250565b600061337f602083612688565b915061338a82613349565b602082019050919050565b600060208201905081810360008301526133ae81613372565b9050919050565b600081905092915050565b60006133cb8261220d565b6133d581856133b5565b93506133e5818560208601612229565b80840191505092915050565b60006133fd82846133c0565b91508190509291505056fea2646970667358221220799e5f9685248cb474554250bee349052a166c8f55491b48f78378cd42d98d7864736f6c63430008090033",
  "immutableReferences": {},
  "source": "// SPDX-License-Identifier: MIT\n\npragma solidity 0.8.9;\n\nimport \"@openzeppelin/contracts/access/Ownable.sol\";\n\n/**\n * @title A voting system contract.\n *\n * @author D Yi Banh\n *\n * @dev A voting system.\n */\ncontract Voting is Ownable {\n    uint private highestVoteCount;\n    WorkflowStatus private workflowStatus;\n    Proposal[] private proposals;\n    mapping (address => Voter) private voters;\n    mapping (uint => uint[]) private proposalsIdsVoteCounts;\n    mapping (uint => Proposal[]) private proposalsVoteCounts;\n\n    struct Voter {\n        bool isRegistered;\n        bool hasVoted;\n        uint votedProposalId;\n    }\n    struct Proposal {\n        string description;\n        uint voteCount;\n    }\n\n    enum WorkflowStatus {\n        RegisteringVoters,\n        ProposalsRegistrationStarted,\n        ProposalsRegistrationEnded,\n        VotingSessionStarted,\n        VotingSessionEnded,\n        VotesTallied\n    }\n\n    event VoterRegistered(address voterAddress);\n    event WorkflowStatusChange(WorkflowStatus previousStatus, WorkflowStatus newStatus);\n    event ProposalRegistered(uint proposalId);\n    event Voted (address voter, uint proposalId);\n\n    /**\n     * @dev Check if the sender is registered in the voters list.\n     */\n    modifier onlyVoters() {\n        require(voters[msg.sender].isRegistered, \"You are not registered as voter.\");\n        _;\n    }\n\n    /**\n     * @dev Compare two string and return a boolean.\n     *\n     * @param _str1 The first string.\n     * @param _str2 The second string.\n     *\n     * @return bool Returns false if there is a difference, otherwise returns true.\n     */\n    function strcmp(string memory _str1, string memory _str2) internal pure returns (bool) {\n        return (keccak256(abi.encodePacked((_str1))) == keccak256(abi.encodePacked((_str2))));\n    }\n\n    /**\n     * @dev Get the highest vote counted.\n     *\n     * @return uint The highest vote counted.\n     */\n    function getHighestVoteCount() external view returns (uint) {\n        require(workflowStatus == WorkflowStatus.VotesTallied, \"The workflow status cannot allowed you to see the highest vote count.\");\n\n        return highestVoteCount;\n    }\n\n    /**\n     * @dev Get the workflow status.\n     *\n     * @return Workflowstatus The workflowStatus.\n     */\n    function getWorkflowstatus() external view returns (WorkflowStatus) {\n        return workflowStatus;\n    }\n\n    /**\n     * @dev Add a proposal with a description.\n     *\n     * @param _description The description of the proposal.\n     */\n    function addProposal(string memory _description) external onlyVoters {\n        require(workflowStatus == WorkflowStatus.ProposalsRegistrationStarted, \"The workflow status cannot allowed you to request proposals.\");\n        require(!strcmp(_description, \"\"), \"Please enter a valid description.\");\n\n        Proposal memory proposal;\n        proposal.description = _description;\n        proposals.push(proposal);\n\n        emit ProposalRegistered(proposals.length - 1);\n    }\n\n    /**\n     * @dev Get all proposal.\n     *\n     * @return Proposal[] The proposal list.\n     */\n    function getProposals() external view onlyVoters returns (Proposal[] memory)  {\n        return proposals;\n    }\n\n    /**\n     * @dev Get a proposal information with an the proposal id.\n     *\n     * @param _proposalId The proposal id.\n     *\n     * @return Proposal The proposal information.\n     */\n    function getProposal(uint _proposalId) external view onlyVoters returns (Proposal memory) {\n        require(_proposalId < proposals.length, \"Proposal not found. Please enter a valid id.\");\n\n        return proposals[_proposalId];\n    }\n\n    /**\n     * @dev Add a voter address into the voters list.\n     *\n     * @param _voterAddress The voter address.\n     */\n    function addVoter(address _voterAddress) external onlyOwner {\n        require(workflowStatus == WorkflowStatus.RegisteringVoters, \"The workflow status cannot allowed you to add voters.\");\n        require(!voters[_voterAddress].isRegistered, \"The voter is already registered.\");\n\n        voters[_voterAddress].isRegistered = true;\n\n        emit VoterRegistered(_voterAddress);\n    }\n\n    /**\n     * @dev Remove a voter address from the voters list.\n     *\n     * @param _voterAddress The voter address.\n     */\n    function removeVoter(address _voterAddress) external onlyOwner {\n        require(workflowStatus == WorkflowStatus.RegisteringVoters, \"The workflow status cannot allowed you to remove voters.\");\n        require(voters[_voterAddress].isRegistered, \"The voter is already not registered.\");\n\n        voters[_voterAddress].isRegistered = false;\n\n        emit VoterRegistered(_voterAddress);\n    }\n\n    /**\n     * @dev Get a voter information.\n     *\n     * @param _voterAddress The voter address.\n     *\n     * @return Voter The voter.\n     */\n    function getVoter(address _voterAddress) external onlyVoters view returns (Voter memory) {\n        return voters[_voterAddress];\n    }\n\n    /**\n     * @dev Start to register proposals.\n     */\n    function startRegisteringProposals() external onlyOwner {\n        require(workflowStatus == WorkflowStatus.RegisteringVoters, \"The workflow status not allowed you to start registering proposals.\");\n\n        workflowStatus = WorkflowStatus.ProposalsRegistrationStarted;\n\n        emit WorkflowStatusChange(WorkflowStatus.RegisteringVoters, WorkflowStatus.ProposalsRegistrationStarted);\n    }\n\n    /**\n     * @dev Stop registering proposals.\n     */\n    function stopRegisteringProposals() external onlyOwner {\n        require(\n            workflowStatus == WorkflowStatus.ProposalsRegistrationStarted,\n            \"The workflow status not allowed you to stop registering proposals.\"\n        );\n\n        workflowStatus = WorkflowStatus.ProposalsRegistrationEnded;\n\n        emit WorkflowStatusChange(WorkflowStatus.ProposalsRegistrationStarted, WorkflowStatus.ProposalsRegistrationEnded);\n    }\n\n    /**\n     * @dev Start the voting session.\n     */\n    function startVotingSession() external onlyOwner {\n        require(workflowStatus == WorkflowStatus.ProposalsRegistrationEnded, \"The workflow status not allowed you to start the voting session.\");\n\n        workflowStatus = WorkflowStatus.VotingSessionStarted;\n\n        emit WorkflowStatusChange(WorkflowStatus.ProposalsRegistrationEnded, WorkflowStatus.VotingSessionStarted);\n    }\n\n    /**\n     * @dev Vote to a proposal.\n     *\n     * @param _proposalId The proposal id.\n     */\n    function vote(uint _proposalId) external onlyVoters {\n        require(workflowStatus == WorkflowStatus.VotingSessionStarted, \"The workflow status not allowed you to vote.\");\n        require(_proposalId < proposals.length, \"Proposal not found. Please enter a valid id.\");\n        require(!voters[msg.sender].hasVoted, \"You have already voted.\");\n\n        voters[msg.sender].votedProposalId = _proposalId;\n        voters[msg.sender].hasVoted = true;\n        proposals[_proposalId].voteCount++;\n\n        emit Voted(msg.sender, _proposalId);\n    }\n\n    /**\n     * @dev Stop the voting session.\n     */\n    function stopVotingSession() external onlyOwner {\n        require(workflowStatus == WorkflowStatus.VotingSessionStarted, \"The workflow status not allowed you to stop the voting session.\");\n        \n        workflowStatus = WorkflowStatus.VotingSessionEnded;\n        \n        emit WorkflowStatusChange(WorkflowStatus.VotingSessionStarted, WorkflowStatus.VotingSessionEnded);\n    }\n\n    /**\n     * @dev Tally all votes. Sort into voteCounts mapping all the proposalIds by vote counted then store the hightest vote count.\n     */\n    function tallyVotes() external onlyOwner {\n        require(workflowStatus == WorkflowStatus.VotingSessionEnded, \"The workflow status not allowed you to tally votes.\");\n\n        for (uint proposalId = 0; proposalId < proposals.length; proposalId++) {\n            Proposal memory proposal = proposals[proposalId];\n            proposalsIdsVoteCounts[proposal.voteCount].push(proposalId);\n            proposalsVoteCounts[proposal.voteCount].push(proposal);\n\n            if (highestVoteCount < proposal.voteCount) {\n                highestVoteCount = proposal.voteCount;\n            }\n        }\n\n        workflowStatus = WorkflowStatus.VotesTallied;\n\n        emit WorkflowStatusChange(WorkflowStatus.VotingSessionEnded, WorkflowStatus.VotesTallied);\n    }\n\n    /**\n     * @dev Get a list of winning proposal ids.\n     *\n     * @return uint[] A list of winning proposal ids.\n     */\n    function getWinningProposalIds() external view returns (uint[] memory) {\n        require(workflowStatus == WorkflowStatus.VotesTallied, \"The workflow status cannot allowed you to see the winners proposal ids.\");\n\n        return proposalsIdsVoteCounts[highestVoteCount];\n    }\n\n    /**\n     * @dev Get a list of winning proposal.\n     *\n     * @return Proposal[] A list of winning proposals.\n     */\n    function getWinners() external view returns (Proposal[] memory) {\n        require(workflowStatus == WorkflowStatus.VotesTallied, \"The workflow status cannot allowed you to see the winners proposals.\");\n\n        return proposalsVoteCounts[highestVoteCount];\n    }\n}\n",
  "sourcePath": "/Users/deyibanh/Documents/Professionnel/Alyra/Applications/alyra-defi3-voting-dapp/contracts/Voting.sol",
  "compiler": {
    "name": "solc",
    "version": "0.8.9+commit.e5eed63a.Emscripten.clang"
  },
  "schemaVersion": "3.4.3",
  "updatedAt": "2021-11-25T03:12:20.080Z",
  "networkType": "ethereum",
  "devdoc": {
    "author": "D Yi Banh",
    "details": "A voting system.",
    "kind": "dev",
    "methods": {
      "addProposal(string)": {
        "details": "Add a proposal with a description.",
        "params": {
          "_description": "The description of the proposal."
        }
      },
      "addVoter(address)": {
        "details": "Add a voter address into the voters list.",
        "params": {
          "_voterAddress": "The voter address."
        }
      },
      "getHighestVoteCount()": {
        "details": "Get the highest vote counted.",
        "returns": {
          "_0": "uint The highest vote counted."
        }
      },
      "getProposal(uint256)": {
        "details": "Get a proposal information with an the proposal id.",
        "params": {
          "_proposalId": "The proposal id."
        },
        "returns": {
          "_0": "Proposal The proposal information."
        }
      },
      "getProposals()": {
        "details": "Get all proposal.",
        "returns": {
          "_0": "Proposal[] The proposal list."
        }
      },
      "getVoter(address)": {
        "details": "Get a voter information.",
        "params": {
          "_voterAddress": "The voter address."
        },
        "returns": {
          "_0": "Voter The voter."
        }
      },
      "getWinners()": {
        "details": "Get a list of winning proposal.",
        "returns": {
          "_0": "Proposal[] A list of winning proposals."
        }
      },
      "getWinningProposalIds()": {
        "details": "Get a list of winning proposal ids.",
        "returns": {
          "_0": "uint[] A list of winning proposal ids."
        }
      },
      "getWorkflowstatus()": {
        "details": "Get the workflow status.",
        "returns": {
          "_0": "Workflowstatus The workflowStatus."
        }
      },
      "owner()": {
        "details": "Returns the address of the current owner."
      },
      "removeVoter(address)": {
        "details": "Remove a voter address from the voters list.",
        "params": {
          "_voterAddress": "The voter address."
        }
      },
      "renounceOwnership()": {
        "details": "Leaves the contract without owner. It will not be possible to call `onlyOwner` functions anymore. Can only be called by the current owner. NOTE: Renouncing ownership will leave the contract without an owner, thereby removing any functionality that is only available to the owner."
      },
      "startRegisteringProposals()": {
        "details": "Start to register proposals."
      },
      "startVotingSession()": {
        "details": "Start the voting session."
      },
      "stopRegisteringProposals()": {
        "details": "Stop registering proposals."
      },
      "stopVotingSession()": {
        "details": "Stop the voting session."
      },
      "tallyVotes()": {
        "details": "Tally all votes. Sort into voteCounts mapping all the proposalIds by vote counted then store the hightest vote count."
      },
      "transferOwnership(address)": {
        "details": "Transfers ownership of the contract to a new account (`newOwner`). Can only be called by the current owner."
      },
      "vote(uint256)": {
        "details": "Vote to a proposal.",
        "params": {
          "_proposalId": "The proposal id."
        }
      }
    },
    "title": "A voting system contract.",
    "version": 1
  },
  "userdoc": {
    "kind": "user",
    "methods": {},
    "version": 1
  }
}